{
  "contractName": "Forwarder",
  "abi": [
    {
      "inputs": [],
      "stateMutability": "nonpayable",
      "type": "constructor"
    },
    {
      "anonymous": false,
      "inputs": [
        {
          "indexed": false,
          "internalType": "address",
          "name": "from",
          "type": "address"
        },
        {
          "indexed": false,
          "internalType": "uint256",
          "name": "value",
          "type": "uint256"
        },
        {
          "indexed": false,
          "internalType": "bytes",
          "name": "data",
          "type": "bytes"
        }
      ],
      "name": "ForwarderDeposited",
      "type": "event"
    },
    {
      "anonymous": false,
      "inputs": [
        {
          "indexed": false,
          "internalType": "address",
          "name": "forwarderAddress",
          "type": "address"
        },
        {
          "indexed": false,
          "internalType": "uint256",
          "name": "value",
          "type": "uint256"
        },
        {
          "indexed": false,
          "internalType": "address",
          "name": "tokenContractAddress",
          "type": "address"
        }
      ],
      "name": "TokensFlushed",
      "type": "event"
    },
    {
      "inputs": [],
      "name": "destination",
      "outputs": [
        {
          "internalType": "address payable",
          "name": "",
          "type": "address"
        }
      ],
      "stateMutability": "view",
      "type": "function",
      "constant": true
    },
    {
      "stateMutability": "payable",
      "type": "receive",
      "payable": true
    },
    {
      "inputs": [
        {
          "internalType": "address payable",
          "name": "newDestination",
          "type": "address"
        }
      ],
      "name": "init",
      "outputs": [],
      "stateMutability": "nonpayable",
      "type": "function"
    },
    {
      "inputs": [
        {
          "internalType": "address payable",
          "name": "newDestination",
          "type": "address"
        }
      ],
      "name": "changeDestination",
      "outputs": [],
      "stateMutability": "nonpayable",
      "type": "function"
    },
    {
      "inputs": [
        {
          "internalType": "address",
          "name": "tokenContractAddress",
          "type": "address"
        }
      ],
      "name": "flushTokens",
      "outputs": [],
      "stateMutability": "nonpayable",
      "type": "function"
    },
    {
      "inputs": [],
      "name": "flush",
      "outputs": [],
      "stateMutability": "payable",
      "type": "function",
      "payable": true
    },
    {
      "inputs": [],
      "name": "withdraw",
      "outputs": [],
      "stateMutability": "payable",
      "type": "function",
      "payable": true
    }
  ],
  "bytecode": "0x608060405260008060146101000a81548160ff02191690831515021790555034801561002a57600080fd5b50336000806101000a81548173ffffffffffffffffffffffffffffffffffffffff021916908373ffffffffffffffffffffffffffffffffffffffff1602179055506001600060146101000a81548160ff021916908315150217905550610822806100956000396000f3fe6080604052600436106100595760003560e01c806319ab453c146101565780633ccfd60b146101a75780633ef13367146101b15780635e949fa0146102025780636b9f96ea14610253578063b269681d1461025d57610151565b366101515760008054906101000a900473ffffffffffffffffffffffffffffffffffffffff1673ffffffffffffffffffffffffffffffffffffffff166108fc349081150290604051600060405180830381858888f193505050501580156100c4573d6000803e3d6000fd5b507f69b31548dea9b3b707b4dff357d326e3e9348b24e7a6080a218a6edeeec48f9b3334600036604051808573ffffffffffffffffffffffffffffffffffffffff168152602001848152602001806020018281038252848482818152602001925080828437600081840152601f19601f8201169050808301925050509550505050505060405180910390a1005b600080fd5b34801561016257600080fd5b506101a56004803603602081101561017957600080fd5b81019080803573ffffffffffffffffffffffffffffffffffffffff16906020019092919050505061029e565b005b6101af610311565b005b3480156101bd57600080fd5b50610200600480360360208110156101d457600080fd5b81019080803573ffffffffffffffffffffffffffffffffffffffff169060200190929190505050610438565b005b34801561020e57600080fd5b506102516004803603602081101561022557600080fd5b81019080803573ffffffffffffffffffffffffffffffffffffffff16906020019092919050505061063e565b005b61025b610742565b005b34801561026957600080fd5b506102726107c8565b604051808273ffffffffffffffffffffffffffffffffffffffff16815260200191505060405180910390f35b600060149054906101000a900460ff1661030e57806000806101000a81548173ffffffffffffffffffffffffffffffffffffffff021916908373ffffffffffffffffffffffffffffffffffffffff1602179055506001600060146101000a81548160ff0219169083151502179055505b50565b60008054906101000a900473ffffffffffffffffffffffffffffffffffffffff1673ffffffffffffffffffffffffffffffffffffffff163373ffffffffffffffffffffffffffffffffffffffff16146103d2576040517f08c379a00000000000000000000000000000000000000000000000000000000081526004018080602001828103825260108152602001807f4f6e6c792064657374696e6174696f6e0000000000000000000000000000000081525060200191505060405180910390fd5b60003090503373ffffffffffffffffffffffffffffffffffffffff166108fc8273ffffffffffffffffffffffffffffffffffffffff16319081150290604051600060405180830381858888f19350505050158015610434573d6000803e3d6000fd5b5050565b600081905060008173ffffffffffffffffffffffffffffffffffffffff166370a08231306040518263ffffffff1660e01b8152600401808273ffffffffffffffffffffffffffffffffffffffff16815260200191505060206040518083038186803b1580156104a657600080fd5b505afa1580156104ba573d6000803e3d6000fd5b505050506040513d60208110156104d057600080fd5b8101908080519060200190929190505050905060008114156104f157600080fd5b8173ffffffffffffffffffffffffffffffffffffffff1663a9059cbb60008054906101000a900473ffffffffffffffffffffffffffffffffffffffff16836040518363ffffffff1660e01b8152600401808373ffffffffffffffffffffffffffffffffffffffff16815260200182815260200192505050602060405180830381600087803b15801561058257600080fd5b505af1158015610596573d6000803e3d6000fd5b505050506040513d60208110156105ac57600080fd5b81019080805190602001909291905050506105c657600080fd5b7fb4bdccee2343c0b5e592d459c20eb1fa451c96bf88fb685a11aecda6b4ec76b1308285604051808473ffffffffffffffffffffffffffffffffffffffff1681526020018381526020018273ffffffffffffffffffffffffffffffffffffffff168152602001935050505060405180910390a1505050565b60008054906101000a900473ffffffffffffffffffffffffffffffffffffffff1673ffffffffffffffffffffffffffffffffffffffff163373ffffffffffffffffffffffffffffffffffffffff16146106ff576040517f08c379a00000000000000000000000000000000000000000000000000000000081526004018080602001828103825260108152602001807f4f6e6c792064657374696e6174696f6e0000000000000000000000000000000081525060200191505060405180910390fd5b806000806101000a81548173ffffffffffffffffffffffffffffffffffffffff021916908373ffffffffffffffffffffffffffffffffffffffff16021790555050565b600030905060008054906101000a900473ffffffffffffffffffffffffffffffffffffffff1673ffffffffffffffffffffffffffffffffffffffff166108fc8273ffffffffffffffffffffffffffffffffffffffff16319081150290604051600060405180830381858888f193505050501580156107c4573d6000803e3d6000fd5b5050565b60008054906101000a900473ffffffffffffffffffffffffffffffffffffffff168156fea2646970667358221220c829c493cb1b485d743690c66b5b0b085d65fdf3fe616fee62169c82e0b5ab4a64736f6c63430007060033",
  "immutableReferences": {},
  "source": "// https://eips.ethereum.org/EIPS/eip-20\n// SPDX-License-Identifier: MIT\npragma solidity >=0.5.0 <0.8.0;\nimport \"./Erc20.sol\";\n/**\n * Contract that will forward any incoming Ether to the creator of the contract\n */\ncontract Forwarder {\n  // Address to which any funds sent to this contract will be forwarded\n  address payable public destination;\n  bool inititalised = false;\n\n  event ForwarderDeposited(address from, uint value, bytes data);\n  event TokensFlushed(address forwarderAddress, uint value, address tokenContractAddress);\n\n  /**\n   * Create the contract, and sets the destination address to that of the creator\n   * set initialised true for the default forwarder on normal contract deployment\n   */\n  constructor() {\n    destination = msg.sender;\n    inititalised = true;\n  }\n\n\n  modifier onlyDestination {\n    if (msg.sender != destination) {\n      revert(\"Only destination\");\n    }\n    _;\n  }\n  //if forwarder is deployed.. forward the payment straight away\n  receive() external payable {\n     destination.transfer(msg.value);\n     emit ForwarderDeposited(msg.sender, msg.value, msg.data);\n  }\n\n  //init on create2\n  function init(address payable newDestination) public {\n      if(!inititalised){\n          destination = newDestination;\n          inititalised = true;\n      }\n  }\n  \n  function changeDestination(address payable newDestination) public onlyDestination{\n      destination = newDestination;\n  }\n\n  //flush the tokens\n  function flushTokens(address tokenContractAddress) public {\n    IERC20 instance = IERC20(tokenContractAddress);\n    uint256 forwarderBalance = instance.balanceOf(address(this));\n    if (forwarderBalance == 0) {\n      revert();\n    }\n    if (!instance.transfer(destination, forwarderBalance)) {\n      revert();\n    }\n    emit TokensFlushed(address(this), forwarderBalance, tokenContractAddress);\n  }\n\n  function flush() payable public {\n    address payable thisContract = address(this);\n    destination.transfer(thisContract.balance);\n  }\n  \n  //simple withdraw instead of flush\n  function withdraw() payable external onlyDestination{\n      address payable thisContract = address(this);\n      msg.sender.transfer(thisContract.balance);\n  }\n}\n\n",
  "sourcePath": "C:\\Users\\Admin\\Downloads\\Nethereum.WalletForwarder-main\\contracts\\Forwarder.sol",
  "compiler": {
    "name": "solc",
    "version": "0.7.6+commit.7338295f.Emscripten.clang"
  },
  "schemaVersion": "3.4.4",
  "updatedAt": "2022-03-14T09:04:55.666Z",
  "networkType": "ethereum",
  "devdoc": {
    "kind": "dev",
    "methods": {},
    "version": 1
  },
  "userdoc": {
    "kind": "user",
    "methods": {
      "constructor": {
        "notice": "Create the contract, and sets the destination address to that of the creator set initialised true for the default forwarder on normal contract deployment"
      }
    },
    "notice": "Contract that will forward any incoming Ether to the creator of the contract",
    "version": 1
  }
}