{
  "contractName": "ForwarderFactory",
  "abi": [
    {
      "anonymous": false,
      "inputs": [
        {
          "indexed": false,
          "internalType": "address",
          "name": "clonedAdress",
          "type": "address"
        }
      ],
      "name": "ForwarderCloned",
      "type": "event"
    },
    {
      "inputs": [
        {
          "internalType": "address payable",
          "name": "forwarder",
          "type": "address"
        },
        {
          "internalType": "uint256",
          "name": "salt",
          "type": "uint256"
        }
      ],
      "name": "cloneForwarder",
      "outputs": [
        {
          "internalType": "contract Forwarder",
          "name": "clonedForwarder",
          "type": "address"
        }
      ],
      "stateMutability": "nonpayable",
      "type": "function"
    },
    {
      "inputs": [
        {
          "internalType": "address payable[]",
          "name": "forwarders",
          "type": "address[]"
        },
        {
          "internalType": "address",
          "name": "tokenAddres",
          "type": "address"
        }
      ],
      "name": "flushTokens",
      "outputs": [],
      "stateMutability": "nonpayable",
      "type": "function"
    },
    {
      "inputs": [
        {
          "internalType": "address payable[]",
          "name": "forwarders",
          "type": "address[]"
        }
      ],
      "name": "flushEther",
      "outputs": [],
      "stateMutability": "nonpayable",
      "type": "function"
    }
  ],
  "bytecode": "0x608060405234801561001057600080fd5b506105ab806100206000396000f3fe608060405234801561001057600080fd5b50600436106100415760003560e01c80636ac427111461004657806396909a79146100be578063bcebbcd414610176575b600080fd5b6100926004803603604081101561005c57600080fd5b81019080803573ffffffffffffffffffffffffffffffffffffffff1690602001909291908035906020019092919050505061024e565b604051808273ffffffffffffffffffffffffffffffffffffffff16815260200191505060405180910390f35b610174600480360360208110156100d457600080fd5b81019080803590602001906401000000008111156100f157600080fd5b82018360208201111561010357600080fd5b8035906020019184602083028401116401000000008311171561012557600080fd5b919080806020026020016040519081016040528093929190818152602001838360200280828437600081840152601f19601f8201169050808301925050505050505091929192905050506103bb565b005b61024c6004803603604081101561018c57600080fd5b81019080803590602001906401000000008111156101a957600080fd5b8201836020820111156101bb57600080fd5b803590602001918460208302840111640100000000831117156101dd57600080fd5b919080806020026020016040519081016040528093929190818152602001838360200280828437600081840152601f19601f820116905080830192505050505050509192919290803573ffffffffffffffffffffffffffffffffffffffff169060200190929190505050610451565b005b60008061025b8484610509565b905060008490508192508273ffffffffffffffffffffffffffffffffffffffff166319ab453c8273ffffffffffffffffffffffffffffffffffffffff1663b269681d6040518163ffffffff1660e01b815260040160206040518083038186803b1580156102c757600080fd5b505afa1580156102db573d6000803e3d6000fd5b505050506040513d60208110156102f157600080fd5b81019080805190602001909291905050506040518263ffffffff1660e01b8152600401808273ffffffffffffffffffffffffffffffffffffffff168152602001915050600060405180830381600087803b15801561034e57600080fd5b505af1158015610362573d6000803e3d6000fd5b505050507f5dd8f89d9637eb98e980512c69ed8152bd1abced4c6785ceeb9f7628bd42e80982604051808273ffffffffffffffffffffffffffffffffffffffff16815260200191505060405180910390a1505092915050565b60005b815181101561044d5760008282815181106103d557fe5b602002602001015190508073ffffffffffffffffffffffffffffffffffffffff16636b9f96ea6040518163ffffffff1660e01b8152600401600060405180830381600087803b15801561042757600080fd5b505af115801561043b573d6000803e3d6000fd5b505050505080806001019150506103be565b5050565b60005b825181101561050457600083828151811061046b57fe5b602002602001015190508073ffffffffffffffffffffffffffffffffffffffff16633ef13367846040518263ffffffff1660e01b8152600401808273ffffffffffffffffffffffffffffffffffffffff168152602001915050600060405180830381600087803b1580156104de57600080fd5b505af11580156104f2573d6000803e3d6000fd5b50505050508080600101915050610454565b505050565b6000808360601b90506040517f3d602d80600a3d3981f3363d3d373d3d3d363d7300000000000000000000000081528160148201527f5af43d82803e903d91602b57fd5bf300000000000000000000000000000000006028820152836037826000f5925050509291505056fea26469706673582212200f8b0926a185dea8d1be39ac098868e714fbcc4d74a39c7a493de6b6fda3bba764736f6c63430007060033",
  "immutableReferences": {},
  "source": "// SPDX-License-Identifier: MIT\r\npragma solidity >=0.5.0 <0.8.0;\r\nimport \"./Forwarder.sol\";\r\n\r\ncontract ForwarderFactory {\r\n\r\n  event ForwarderCloned(address clonedAdress);\r\n\r\n  function cloneForwarder(address payable forwarder, uint256 salt)\r\n    public returns (Forwarder clonedForwarder) {\r\n    address payable clonedAddress = createClone(forwarder, salt);\r\n    Forwarder parentForwarder = Forwarder(forwarder);\r\n    clonedForwarder = Forwarder(clonedAddress);\r\n    clonedForwarder.init(parentForwarder.destination());\r\n    emit ForwarderCloned(clonedAddress);\r\n  }\r\n\r\n  function createClone(address target, uint256 salt) private returns (address payable result) {\r\n    bytes20 targetBytes = bytes20(target);\r\n    assembly {\r\n      let clone := mload(0x40)\r\n      mstore(clone, 0x3d602d80600a3d3981f3363d3d373d3d3d363d73000000000000000000000000)\r\n      mstore(add(clone, 0x14), targetBytes)\r\n      mstore(add(clone, 0x28), 0x5af43d82803e903d91602b57fd5bf30000000000000000000000000000000000)\r\n      result := create2(0, clone, 0x37, salt)\r\n    }\r\n  }\r\n\r\n  function flushTokens(address payable[]  memory forwarders, address tokenAddres) public {\r\n      for (uint index = 0; index < forwarders.length; index++) {\r\n         Forwarder forwarder = Forwarder(forwarders[index]);\r\n         forwarder.flushTokens(tokenAddres);\r\n      }\r\n  }\r\n\r\n  function flushEther(address payable[]  memory forwarders) public {\r\n      for (uint index = 0; index < forwarders.length; index++) {\r\n         Forwarder forwarder = Forwarder(forwarders[index]);\r\n         forwarder.flush();\r\n      }\r\n  }\r\n}",
  "sourcePath": "C:\\Users\\BAP\\Desktop\\Project\\Wallet-Forwarder\\contracts\\ForwarderFactory.sol",
  "compiler": {
    "name": "solc",
    "version": "0.7.6+commit.7338295f.Emscripten.clang"
  },
  "schemaVersion": "3.4.6",
  "updatedAt": "2022-03-17T06:47:15.733Z",
  "networkType": "ethereum",
  "devdoc": {
    "kind": "dev",
    "methods": {},
    "version": 1
  },
  "userdoc": {
    "kind": "user",
    "methods": {},
    "version": 1
  }
}